:020000040800F2
:10000000500D0020253200083D0600083F0600087C
:1000100073060008770600087B0600080000000051
:100020000000000000000000000000007F06000843
:10003000810600080000000083060008850600080D
:100040003F3200083F3200083F3200083F320008CC
:100050003F3200083F3200083F3200083F320008BC
:100060003F3200083F3200083F3200083F320008AC
:100070003F3200083F3200083F3200083F3200089C
:100080003F3200083F3200083F3200083F3200088C
:100090003F3200083F3200083F3200083F3200087C
:1000A0003F3200083F3200083F3200083F3200086C
:1000B000BF0700083F3200083F3200083F32000807
:1000C0003F3200083F3200083F3200083F3200084C
:1000D0003F32000887060008570700083F32000833
:1000E0003F3200083F3200083F320008DFF80CD0F2
:1000F00003F0F4FC004800477D020008500D00208A
:1001000010B50122D849D94800F05BFF60B1012049
:10011000D74908700020D7490870002240F22551C5
:10012000D54802F066FE0DE0D4480078401CD34963
:10013000087008460078142804DB002008700120AD
:10014000CF490870C94801F0EAF900F06FFDCD48C9
:1001500001F0E0F910BD10B5CB480078401ECB4946
:100160000968085C23287DD1C9A000F041FC002863
:1001700017D0CAA000F01BFC00F02AFC68B10020D8
:10018000CD4908700022CDA1032001F0D9F9044621
:100190000022CDA100F075FB6DE0CDA000F007FCC2
:1001A00069E0D1A000F024FC78B1B24800780128C1
:1001B00003D1D1A000F0FBFB5DE00121AE4800F0CF
:1001C000D7FC0120AB49087055E0D0A000F010FC2E
:1001D00030B10120D0490870800700F08EFD4AE060
:1001E000CEA000F005FCC8B1D0A000F0E0FB00F00C
:1001F000EFFB00283FD00020AF490870D1A2D2A168
:10020000022001F09DF904460022D1A100F039FB43
:10021000002830D1D3A000F0CAFB2CE0D7A000F01A
:10022000E7FB28B3D9A000F0C2FB00F0D1FB10B36C
:100230000022A2A1032001F083F904460022A2A11A
:1002400000F01FFB01F0D5F9012814D172B600BFF0
:10025000D248006800F4E060D1490843001DCF494E
:10026000086000E009E0BFF34F8F00BF00BFFEE76A
:10027000CCA000F09CFB00F0CFFC10BD88B0CE48B5
:10028000406A00F0805028B1CB48406A40F080704E
:10029000C9494862002088490870012144F21400CD
:1002A00001F05AFD0121C54801F063FD01F082F91A
:1002B00001F071F9C24800F00DFC6F4800F00AFC33
:1002C0004FF4E131BE4800F061FC0121BC4800F070
:1002D0004FFC4FF41651684800F058FC00F07BFCCE
:1002E0004FF0804000F0E8FC1C2000F014FD0821D5
:1002F000B44801F008FB08B901F06BF94FF47A70CB
:1003000000F0CBFC00BF00F0F6FA012802D16A49E8
:1003100008700BE0AC48007808B900BFFEE7AA48B7
:100320000078401EA849087001F079F96248007809
:100330000028E8D0A5A000F03AFB00F06DFC92E0A8
:1003400068E05148007808B1FFF705FF01F0D9F8DF
:10035000002859D0FFF7D4FE45480078002853D034
:1003600000204349087001213F4800F0EDFE3E495E
:10037000283101A802F0C3FF3B4901A802F076FF33
:100380009BA101A802F072FF37492A3101A802F0AF
:100390006DFF35490B3101A802F068FF45A101A8A6
:1003A00002F064FF01A800F002FB1C2101A802F08A
:1003B00052FF2D49886903F00EFA044622460B4687
:1003C0008CA101A803F09CFB01A800F0F0FA1C210D
:1003D00001A802F040FF2449C86903F0FCF9044673
:1003E00022460B4683A101A803F08AFB01A800F076
:1003F000DEFA0B211C4802F02EFF1B480B300021B7
:1004000001604160816000BF4348007810B17A48C4
:1004100000F0CDFA28480078002892D108216948D8
:1004200001F071FA01281ED1002274A101F088F8B0
:100430000446002274A100F024FA012809D100F03A
:1004400084FA01280FD11C49087072A000F0AFFA9D
:1004500009E0002219A1032001F072F804460022ED
:1004600019A100F00EFA6BE74C000020800000207C
:100470000100002004000020004400400300002090
:100480000200002007000020100000200C000020C7
:1004900054435020436C6F73652300000D0A54438E
:1004A0005020436C69656E7420636C6F7365696E70
:1004B000672E2E2E0D0A0000000000202B4349500D
:1004C000534855543D00000053485554204F4B00AD
:1004D00054435020436C69656E7420636C6F736580
:1004E000206661696C2E000047657420506F736947
:1004F00074696F6E230000000D0A50726F6365739C
:1005000073696E672E2E2E0D0A0000004379636C0E
:10051000652073656E6423000500002047534D205D
:1005200053687574646F776E230000000D0A47539B
:100530004D2053687574646F776E696E672E2E2E2A
:100540000D0A0000310000002B43504F57443D007E
:100550004E4F524D414C20504F57455220444F571B
:100560004E0000000D0A47534D2053687574646FA8
:10057000776E206661696C2E0D0A0000446576690D
:100580006365205265626F6F742300000D0A576126
:100590006974696E672E2E2E0D0A00000CED00E0C6
:1005A0000000FA050D0A4E6F7420746869732063A9
:1005B0006D642E0D0A0000000010024001000200D0
:1005C0000038014000100140060000205443502034
:1005D000436C69656E7420686173206265656E2086
:1005E000636F6E6E65637465642E0D0A0000000013
:1005F0002C00000025660000A04400082B43495051
:100600005354415455533D00495020494E49544993
:10061000414C00000D0A54435020436C69656E74D0
:1006200020686173206265656E207265636F6E6E0F
:1006300065637465642E0D0A00000000704717E0C2
:1006400069A000F0B4F94FF47A7000F026FB6A4814
:1006500000686A4908436849086072B666482038ED
:1006600000686749084364492039086000BFFEE715
:10067000E6E700BFFEE700BFFEE700BFFEE770470A
:1006800070477047704710B540F225515D4802F041
:1006900095FCC0B15B4802F011FCC1B25A48027827
:1006A0000078401C584B1870584800688154184610
:1006B0000078642802DB00201946087040F22551BA
:1006C000504802F0A5FC08214E4802F061FC80B1C0
:1006D0004C4802F0F3FBC1B24B4802780078401C52
:1006E000494B18704948006881540821454802F078
:1006F0005CFC10BD4649097811B94649097801B931
:100700007047242807D14249097821B90121404A7C
:100710005170002191703E494978D1B13E4991F81C
:10072000652091F86510491C3B4B83F8651019460C
:1007300088540A280DD100211A4692F86520995450
:10074000334A517001219170117000211A4682F8CC
:10075000651000BFD4E770B540F225512F4802F074
:1007600017FCD8B12D4802F0A9FBC4B22C4801787F
:100770000078401C2A4A10702A48006844542046D9
:10078000FFF7B8FF26480078642802DB00202449E0
:10079000087040F22551214802F03AFC08211F4818
:1007A00002F0F6FB50B11D4802F088FBC5B22846A6
:1007B000FFF7A0FF0821194802F0F7FB70BD10B544
:1007C0000121880702F025FA68B14FF0804000F05F
:1007D0009BFA00204FF08041888413490870012162
:1007E000880702F027FA10BD4572726F72203078C8
:1007F00030303031000000002CED00E0020000C07D
:100800000100FA0500380140100000200C00002013
:100810000700002004000020800000200044004069
:1008200018000020140000200500002010B5044628
:100830000CB9002010BD21467648006802F022FD68
:1008400008B10120F6E70020F4E770B504460D4634
:10085000204602F03FFD86B200BF14F8011B6E482F
:1008600002F028FB00BF40216B4802F091FB0028FA
:10087000F9D0701E80B2061EEFD1284600F00DFAA6
:1008800070BD0FB42DE9F843074603250AA8009070
:10089000009850F8048B009000BF03264FF4FA71C3
:1008A0003846FFF7D2FF07E0701EC6B206B90CE06B
:1008B0004FF4FA7000F0F1F90998FFF7B7FF20B98B
:1008C0004046FFF7B3FF0028EED000BF00F0A4F9C8
:1008D00016B9681EC5B200E001E0002DDDD100BFF1
:1008E0000DB9002400E00124002000902046BDE85E
:1008F000F8035DF814FB10B548A249A1022000F0EE
:100900001FFE044600224AA1FFF7BBFF49A24AA1ED
:10091000022000F015FE0446002245A1FFF7B1FFBA
:1009200048A24CA1022000F00BFE0446002240A188
:10093000FFF7A7FF4AA252A1022000F001FE0446E1
:1009400052A256A1FFF79DFF10BD10B544A24CA1C5
:10095000022000F0F5FD04464CA250A1FFF791FFE4
:1009600010BD0FB42DE9F84307460D4616460CA8F6
:100970000090009850F8048B00904FF4FA713846BC
:10098000FFF763FF2846FFF751FF30B94246304674
:100990000B99FFF776FF044602E000F03DF90024D2
:1009A000002000902046BDE8F8035DF814FB70B508
:1009B000044600250A213CA0FFF747FF00212046FE
:1009C000FFF743FF00213CA0FFF73FFF284670BD23
:1009D00010B512A239A1022000F0B2FD0446002297
:1009E00039A1FFF74EFF08B1012010BD0020FCE740
:1009F00070B5044621460748006802F043FC0546EE
:100A000035B12146284602F06CFC08B9012070BDC2
:100A10000020FCE70C0000200038014031000000FD
:100A2000453056302657302B434C54533D00000080
:100A300030000000320000002B4349505350525404
:100A40003D00000022544350222C2231313131220A
:100A5000000000002B434C504F52543D000000005A
:100A600022544350222C223131342E3231352E384B
:100A7000342E323530222C2238303038220000001B
:100A80002B43495053544152543D0000414C524570
:100A900041445920434F4E4E45435400434F4E4E20
:100AA000454354204F4B000041542B43495053457C
:100AB0004E440D0A000000001A0000002B4349506C
:100AC000434C4F53453D0000434C4F5345204F4B43
:100AD0000000000038B504466148844217D1401533
:100AE000ADF8000018208DF8030001208DF80200F9
:100AF00069465C4800F074FE2015ADF80000042043
:100B00008DF803006946574800F06AFE19E0564820
:100B1000844216D10420ADF8000018208DF803009F
:100B200003208DF8020069464E4800F059FE082067
:100B3000ADF8000004208DF803006946494800F034
:100B40004FFE38BD7FB505460C4600940020ADF839
:100B50000800ADF80600ADF804000C20ADF80A005E
:100B60000020ADF80C006946284602F0AAF87FBDC7
:100B700070B505460C46224640F22551284602F043
:100B800038F92146284602F028F970BD70B50446B0
:100B90000D46334884420DD10020344908700121AC
:100BA000642002F0B5FB3249086029462046FFF771
:100BB000C9FF0FE02C4884420CD100202D49087059
:100BC0000121642002F0A4FB2B490860294620463D
:100BD000FFF7B8FF70BD08B54FF4C06000F032FDFC
:100BE00025208DF8000000208DF801008DF802000E
:100BF00001208DF80300684600F029FD26208DF8BD
:100C0000000001208DF801008DF802008DF803002E
:100C1000684600F01CFD08BD10B56421144800684A
:100C200002F019FB00201149087010BD10B56421B5
:100C30001148006802F00FFB00200E49087010BD3B
:100C400070B504460D46E1B2074802F033F900BF23
:100C50004021054802F09CF90128F9D1204670BDD9
:100C6000003801400008014000440040100000200E
:100C70000C000020180000201400002000B970476C
:100C800005E00C2100BF0A1EA1F10101FBD1021EEB
:100C9000A0F10100F5D100BFF1E710B5044604B999
:100CA00010BD03E040F20640FFF7E8FF201EA4F16C
:100CB0000104F7D100BFF3E73EB5044641F61F40FB
:100CC000ADF8000042F20F70ADF804000020ADF85E
:100CD0000200ADF806006946204601F075F90121D1
:100CE000204601F0CDFD01221146204601F0E3FC33
:100CF0000121204601F08AFF3EBD10B504460121C6
:100D0000204601F0BDFC10BD10B504460021204670
:100D100001F0B6FC10BD38B504464FF4C06000F0D9
:100D200091FC8DF8004000208DF8010001208DF825
:100D300002008DF80300684600F089FC38BD000011
:100D40008179491C817181793B290CDD00218171F8
:100D50004179491C417141793B2904DD00214171F0
:100D60000179491C01710179083101710179172953
:100D70004ADD017918390171C178491CC170817847
:100D8000042908D08178062905D08178092902D064
:100D900081780B2908D1C1781E290DDD0121C17090
:100DA0008178491C817007E0C1781F2904DD012189
:100DB000C1708178491C81700188CA1701EB927259
:100DC0009210A1EB82025AB9C1781D2913DD8178F6
:100DD000022910D10121C1708178491C81700AE07B
:100DE000C1781C2907DD8178022904D10121C17055
:100DF0008178491C817081780C2905DD81780C3956
:100E000081700188491C018070472DE9F041074637
:100E10000D460026284602F05DFA00F0FF08002487
:100E200010E0285D2C2801D1701CC6B2BE4203D14F
:100E3000601CC0B2BDE8F081FF2E01DD0020F9E7A3
:100E4000601CC4B24445ECDB0020F3E72DE9FE4F03
:100E5000824600210E460F46012002904FF0000B03
:100E60006BE09AF800002E380C2829D2DFE800F059
:100E7000252806090C101316191C1F2200242546CC
:100E80001EE00024FE4D1BE000244FF0804517E0DB
:100E90000024FC4D14E00024FB4D11E00024FB4D28
:100EA0000EE00024FA4D0BE00024FA4D08E0002487
:100EB000F94D05E00024F94D02E00024F84D00BF93
:100EC00000BF0022F64B2046294602F097FC06D1CF
:100ED000002002904FF0010B0AF1010A2DE0029868
:100EE00001280DD10022EF4B3046394602F04FFB6E
:100EF000804622462B4602F0A3FA06460F4619E02A
:100F00000BEB8B01480002F028FC02460B46CDE9B2
:100F100000012046294602F0ACFB804632463B46A3
:100F200002F08EFA06460F460BEB8B004FF6FF7170
:100F300001EA400B0AF1010A00BF9AF800000028FC
:100F40008FD13046394603B0BDE8F08F2DE9F0412E
:100F50008046002541460120FFF757FF0446012146
:100F6000204602F0D5F90546ADB1601EC4B2224656
:100F70004146284602F098F9002028552846FFF7F8
:100F800065FF06460F462146284602F064F92846CA
:100F900003F028FA002530463946BDE8F08170B5E7
:100FA00006460C4631460120FFF72FFF0546681E16
:100FB000C5B22A463146204602F076F90020605537
:100FC00070BD2DE9F04F85B007460D4690463C4672
:100FD00060790490B8F1010F05D121460220FFF796
:100FE00014FF14F80090049843287DD1B9F1410F03
:100FF000FBD121460420FFF708FF205C85F828007C
:1010000000212920415521460620FFF7FEFE205CE5
:1010100085F82A0000212B20415521460320FFF7A7
:10102000F4FE00EB040B29465846FFF7B8FF2146B3
:101030000520FFF7EAFE00EB040B05F10B01584613
:10104000FFF7ADFF21460720FFF7DFFE00EB040BA3
:101050005846FFF77BFFCDE9020102F0E7FB82462D
:10106000504602F0B8FB904A904BCDE9000102F0E7
:101070008EFACDE9020102F0D9FBA86121460820D1
:10108000FFF7C3FE00EB040B5846FFF75FFFCDE907
:10109000020102F0CBFBE861207A3038E179303987
:1010A00001EB810100EB4100C1B230204155A07A33
:1010B0003038617A303901EB810100EB4100C1B277
:1010C00031204155207B3038E17A303901EB810104
:1010D00000EB4100C1B23220415521460920FFF703
:1010E00094FE0646701C00E02CE0205C3038A15DC8
:1010F000303901EB810100EB4100C1B22F20415595
:10110000F01C205C3038B11C615C303901EB81018E
:1011100000EB4100C1B22E204155701D205C3038DB
:10112000311D615C303901EB810100EB410000F5BC
:10113000FA60A88505F12C00FFF702FE012005B03A
:10114000BDE8F08F0020FAE72DE9F04F8FB005469B
:101150000E46022E00D01EB901200FB0BDE8F08F60
:10116000012E7CD1002003900490059000BF2846FA
:10117000FFF76CFECDE9080105F10B00FFF766FEF5
:10118000CDE90A01DDE90821104602F00BFB80B22F
:10119000642190FBF1F0C0B28DF830009DF8301062
:1011A000642201FB02F002F0D8FA8146DDE908B3BF
:1011B0005A4602F0E9F9CDE9000102F037FB074693
:1011C000384602F0DBFAC0B28DF831009DF83100EC
:1011D00002F0BEFA8246394602F0FDF881463449F3
:1011E00002F0FCF80790079802F0C8FAC0B28DF838
:1011F0003200DDE90A21104602F0D4FA80B26421FF
:1012000090FBF1F0C0B28DF833009DF833106422EA
:1012100001FB02F002F0A1FA8146DDE90AB35A4669
:1012200002F0B2F9CDE9000102F000FB8046404631
:1012300002F0A4FAC0B28DF834009DF8340002F038
:1012400087FA8246414602F0C6F88146184902F004
:10125000C5F80690069802F091FAC0B200E07EE070
:101260008DF835000B21284601F0F5FF002045F8E8
:101270000B0F6860A8600B3D9DF830200DA11BE0AE
:101280000000F03F00000840000010400000144043
:101290000000184000001C400000204000002240D8
:1012A00000004740000024409A9999999999FD3F80
:1012B000000070422564000003A802F021FCC4B2C3
:1012C0002E222046611CCCB203A90A549DF831207D
:1012D000081996A102F014FC2044C4B22E22204624
:1012E000611CCCB203A90A549DF8322008198FA1C1
:1012F00002F006FC2044C4B2621C03A9284601F097
:10130000D3FF9DF83320AFF2540103A802F0F8FB9D
:10131000C4B22E222046611CCCB203A90A549DF807
:101320003420081981A102F0EBFB2044C4B22E2224
:101330002046611CCCB203A90A549DF83520081937
:101340007AA102F0DDFB2044C4B2002003A90855B5
:10135000621C05F10B0001F0A7FF0120FDE6032E42
:101360007ED12846FFF772FDCDE9060105F10B009D
:10137000FFF76CFDCDE90801DDE90621104602F01A
:1013800011FA80B2642190FBF1F0C0B28DF8280010
:101390009DF82810642201FB02F002F0DEF981467C
:1013A000DDE906733A4602F0EFF8CDE9040102F0F8
:1013B0003DFA0446204602F00EFA814600225D4BBB
:1013C00002F057F9074602F031FA0B909DF8280019
:1013D00002F0BEF980460B9901F0A8FF074602F023
:1013E000FAF9CDE90601DDE90821104602F0DAF943
:1013F00080B2642190FBF1F0C0B28DF830009DF80E
:101400003010642201FB02F002F0A7F9CDE90401DB
:10141000DDE908733A4602F0B7F8814602F006FAB1
:101420008346584602F0D7F981460022414B02F02C
:1014300020F9074602F0FAF90D909DF8300002F00D
:1014400087F980460D9901F071FF074602F0C3F954
:10145000CDE908010B21284601F0FDFE002000E047
:1014600015E045F80B0F6860A8600B3DDDE90673D9
:101470003A4631A1284602F043FBDDE908733A46BB
:101480002DA105F10B0002F03BFB012065E600BF3A
:10149000002062E62DE9F0470746884614461D46BF
:1014A0000121204601F034FF064616B90020BDE8B0
:1014B000F0873A46434620A1284602F021FB224607
:1014C0002946304601F0F0FE284601F003FF00F106
:1014D00001094946284601F0BEFE2246314628460B
:1014E00001F0E2FE002028552146304601F0B3FE0F
:1014F000304602F077FF00262846D8E70346002052
:1015000070470E48007870470C48407870470B4889
:10151000807870470021017041708170704710B56C
:1015200004466421204601F096FE10BD2530326449
:101530000000000000004E4025660000070000206B
:101540002DE9F04104460F4615466421394801F063
:1015500082FE39A1374801F0D2FE3946354801F004
:1015600085FE012C01D0032C08D13D21314801F02A
:10157000A7FE06460EB10020307000E000BF1DB18E
:1015800029462C4801F072FE2CA12A4801F06EFE7B
:101590002848BDE8F08108B50220ADF80000102011
:1015A0008DF8030003208DF802006946244800F0FE
:1015B00017F908BD08B50820ADF8000028208DF8FF
:1015C000030003208DF8020069461D4800F008F969
:1015D00008BD10B501220221194800F0B2F94FF4FC
:1015E0002F70FFF75AFB00220221154800F0A9F9DD
:1015F00010BD10B50821124800F085F90446FFF728
:10160000E8FF40F6C410FFF748FB08210C4800F043
:101610007AF9A04201D0012010BD0020FCE710B5EE
:101620000024FFF7E6FF012802D1FFF7E2FF04469E
:10163000204610BDE6000020415400000D0A0000C5
:101640000010014031490143314A1160704770B5C3
:10165000002100230F22C47804B32D4C246804F425
:10166000E064C4F5E064210AC1F10403CA4044788F
:1016700004FA03F18478144021430901254C0678CB
:10168000A155047804F01F050124AC4005786D11C4
:10169000AD0005F1E025C5F8004109E0047804F04B
:1016A0001F050124AC401C4D0678761145F82640F4
:1016B00070BD1A4A0A400243154B1B1F1A6070473F
:1016C00039B1134A121D12680243114B1B1D1A60D7
:1016D00006E00F4A121D126882430D4B1B1D1A6053
:1016E0007047042808D14FF0E021096941F0040156
:1016F0004FF0E022116107E04FF0E021096921F08D
:1017000004014FF0E0221161704700000000FA056B
:101710000CED00E000E400E080E100E080FFFF1F4E
:1017200010B50446CC48844208D10121042000F0C1
:101730002DFB0021042000F029FB46E0C74884422D
:1017400008D10121082000F021FB0021082000F031
:101750001DFB3AE0C248844208D10121102000F06C
:1017600015FB0021102000F011FB2EE0BD48844243
:1017700008D10121202000F009FB0021202000F0E9
:1017800005FB22E0B848844208D10121402000F046
:10179000FDFA0021402000F0F9FA16E0B348844237
:1017A00008D10121802000F0F1FA0021802000F012
:1017B000EDFA0AE0AE48844207D10121801500F01D
:1017C000E5FA0021A01500F0E1FA10BD10B50121E5
:1017D000084600F0DBFA0021012000F0D7FA10BD26
:1017E0002DE9F041024600250026002000230024B8
:1017F000002791F803C00CF00F0591F803C00CF01E
:10180000100CBCF1000F03D091F802C04CEA0505A2
:1018100091F800C0BCF1000F31D0146800202BE01B
:101820004FF0010C0CFA00F3B1F800C00CEA03060B
:101830009E4220D183004FF00F0C0CFA03F7BC43FB
:1018400005FA03FC4CEA040491F803C0BCF1280F2C
:1018500006D14FF0010C0CFA00FCC2F814C00AE0EB
:1018600091F803C0BCF1480F05D14FF0010C0CFA00
:1018700000FCC2F810C0401C0828D1D31460B1F895
:1018800000C0BCF1FF0F34DD546800202EE000F1F1
:10189000080C4FF0010808FA0CF3B1F800C00CEA8C
:1018A00003069E4221D183004FF00F0C0CFA03F780
:1018B000BC4305FA03FC4CEA040491F803C0BCF1F4
:1018C000280F05D100F1080C08FA0CF8C2F81480B2
:1018D00091F803C0BCF1480F07D100F1080C4FF09C
:1018E000010808FA0CF8C2F81080401C0828CED372
:1018F0005460BDE8F0814FF6FF71018002218170D4
:101900000421C17070470246002093680B400BB160
:10191000012000E0002070470146886880B27047CF
:1019200002460020D3680B400BB1012000E00020EC
:1019300070470146C86880B27047016170474161D5
:1019400070470AB1016100E041617047C1607047B2
:101950004FF480320A4382618161826182698269C7
:10196000704702460020434B18684FF680731840BA
:1019700040EA021008433F4B186070473E49C86177
:101980007047F0B50A46002300240021002500F02E
:101990000046B6F1004F02D1364EF16901E0354EF6
:1019A0007168C0F3034583B200F44016B6F5401FDA
:1019B00008D121F070612F4E766826F070662D4FA9
:1019C0007E6012E000F48016B6F5801F06D1032673
:1019D00006FA05F4A14341F0706106E0460D3601B8
:1019E00003FA06F6B14341F0706122B1460D3601AB
:1019F00003FA06F6314300F00046B6F1004F02D17B
:101A00001C4EF16101E01B4E7160F0BD30B500224B
:101A10008B071C0F0F2303FA04F2164B08338C10AC
:101A200053F824309343134C08348D1044F8253078
:101A300023468C1053F824308C07240F00FA04F44A
:101A400023430C4C08348D1044F8253030BD0A492E
:101A5000DC3108607047000000080140000C0140C4
:101A6000001001400014014000180140001C01401A
:101A7000002001400000014000002042DF480068D3
:101A800040F00100DD49086008464068DC49084034
:101A9000DA49486008460068DA490840D7490860D2
:101AA0000846006820F4802008600846406820F45A
:101AB000FE0048604FF41F0088607047CF490968F6
:101AC00021F48031CD4A11601146096821F480214A
:101AD0001160B0F5803F03D0B0F5802F0ED106E045
:101AE000C649096841F48031C44A116007E0C3491E
:101AF000096841F4A021C14A116000E000BF00BFA5
:101B0000704710B501460022002300204A11012A27
:101B100002D1BA4C236806E0022A02D1B74C236AEC
:101B200001E0B64C636A01F01F02012494401C409E
:101B30000CB1012000E0002010BD38B5002000905D
:101B40000024002500BF3120FFF7DBFF0546009889
:101B5000401C00900098B0F5A06F01D0002DF2D08D
:101B60003120FFF7CEFF08B1012400E00024204619
:101B700038BD01460020A14A106820F0F80040EA74
:101B8000C10010607047A0490860704702460020FD
:101B90009A4B586820F47C1042EA01031843974B93
:101BA0005860704798490866704701460020934A7C
:101BB000506820F003000843506070478F48406829
:101BC00000F00C007047014600208C4A506820F05D
:101BD000F00008435060704701460020874A506873
:101BE00020F4E06008435060704701460020834ABB
:101BF000506820F4605040EAC1005060704729B13D
:101C00007E4A527A02437D4B5A7204E07B4A527AF2
:101C100082437A4B5A7270477B49D83108607047CB
:101C200001460020754A506820F440400843506047
:101C300070470021714A20321170704A82F82010DA
:101C4000012802D004280AD104E001216B4A203285
:101C5000117005E00521694A2032117000E000BFD3
:101C600000BF70476949086070476449096A0143C9
:101C7000624A11627047654944390860704730B55F
:101C800000210022002400235C4D6D6805F00C014A
:101C900021B1042905D0082923D105E05C4D056058
:101CA00022E05B4D05601FE0544D6D6805F4701235
:101CB000524D6D6805F48034022505EB92421CB943
:101CC000544D554305600BE04C4D6D6805F40035EF
:101CD0001DB1504D5543056002E04D4D5543056023
:101CE00002E04B4D056000BF00BF444D6D6805F03C
:101CF000F0010909484D6B5C0568DD4045603F4DCA
:101D00006D6805F4E061090A434D6B5C4568DD4090
:101D100085603A4D6D6805F46051C90A3E4D6B5CB3
:101D20004568DD40C560354D6D6805F44041890B5F
:101D30003A4D6B5CC568B5FBF3F5056130BD29B163
:101D40002E4A526902432D4B5A6104E02B4A5269D4
:101D500082432A4B5A61704729B1284A926902434B
:101D6000264B9A6104E0254A92698243234B9A618B
:101D7000704729B1214AD2690243204BDA6104E05D
:101D80001E4AD26982431D4BDA61704729B11B4A52
:101D9000D2680243194BDA6004E0184AD2688243E1
:101DA000164BDA60704729B1144A12690243134B8B
:101DB0001A6104E0114A12698243104B1A6170479C
:101DC00012494039086070470F49C86470470B4991
:101DD000C87170470948406A40F0807007494862FE
:101DE000704701460020054A92680A400AB1012066
:101DF00000E00020704701498872704700100240DF
:101E00000000FFF8FFFFF6FE00004242800442425D
:101E100000127A0000093D0019000020290000206E
:101E200010B50446FE48844208D10121C014FFF7D2
:101E3000ADFF0021E014FFF7A9FFC4E0B4F1804F2B
:101E400008D101210846FFF7AEFF00210120FFF76E
:101E5000AAFFB8E0F348844208D101210220FFF72D
:101E6000A2FF00210220FFF79EFFACE0EE48844273
:101E700008D101210420FFF796FF00210420FFF77D
:101E800092FFA0E0E948844208D101210820FFF731
:101E90008AFF00210820FFF786FF94E0E44884428F
:101EA00008D101211020FFF77EFF00211020FFF74D
:101EB0007AFF88E0DF48844208D101212020FFF723
:101EC00072FF00212020FFF76EFF7CE0DA48844299
:101ED00008D101214014FFF759FF00216014FFF7DA
:101EE00055FF70E0D548844209D10121C804FFF7AD
:101EF0004DFF00214FF40020FFF748FF63E0D0487A
:101F0000844209D101210805FFF740FF00214FF469
:101F10008010FFF73BFF56E0CA48844209D10121F7
:101F20004805FFF733FF00214FF40010FFF72EFFA5
:101F300049E0C548844208D101214020FFF733FF22
:101F400000214020FFF72FFF3DE0C048844208D128
:101F500001218020FFF727FF00218020FFF723FFCA
:101F600031E0BB48844208D101218015FFF71BFFF7
:101F70000021A015FFF717FF25E0B648844209D1DC
:101F800001210804FFF702FF00214FF48030FFF722
:101F9000FDFE18E0B048844209D101214804FFF752
:101FA000F5FE00214FF40030FFF7F0FE0BE0AB48E8
:101FB000844208D101218804FFF7E8FE00214FF494
:101FC0008020FFF7E3FE10BD00220288944B984268
:101FD0000ED0994B98420BD0B0F1804F08D0914B66
:101FE000984205D0904B984202D0904B984204D131
:101FF0004FF68F731A404B881A438D4B984207D087
:102000008C4B984204D04FF6FF431A40CB881A43BA
:1020100002808B8883850B880385814B98420BD087
:10202000854B984208D08B4B984205D08A4B9842FA
:1020300002D08A4B984201D10B7A03860123838216
:10204000704770B5002400220023058C4FF6FE7601
:1020500035400584028C8388048B4FF68F752C40A5
:10206000B51E2C400D882C43751E2A400D892A432D
:102070004D882A436A4DA8420BD06F4DA84208D024
:10208000744DA84205D0744DA84202D0734DA842A9
:1020900013D14FF6F7752A404D892A434FF6FB7549
:1020A0002A408D882A434FF6FF652B404FF6FF5597
:1020B0002B408D892B43CD892B4383800483CD888E
:1020C0008586028470BD70B5002400220023058C33
:1020D0004FF6EF7635400584028C8388048B48F6F2
:1020E000FF752C404FF6FF452C400D884FF6FF76CC
:1020F00006EA05252C434FF6DF752A400D8906EACE
:1021000005152A434D8806EA05152A43444DA84281
:1021100002D0494DA8421DD14FF67F752A404D8906
:102120004FF6FF7606EA05152A434FF6BF752A409B
:102130008D8806EA05152A434FF6FF352B404FF2EE
:10214000FF752B408D8906EA85052B43CD8906EA6C
:1021500085052B4383800483CD880587028470BD69
:1021600070B5002400220023058C4FF6FF66354031
:102170000584028C8388848B4FF68F752C404FF634
:10218000FC752C400D882C434FF6FF552A400D89D5
:102190004FF6FF7606EA05252A434D8806EA05250F
:1021A0002A431F4DA84202D0234DA8421DD14FF211
:1021B000FF752A404D894FF6FF7606EA05252A432A
:1021C0004FF6FF352A408D8806EA05252A434EF64C
:1021D000FF752B404DF6FF752B408D8906EA0515DE
:1021E0002B43CD8906EA05152B4383808483CD8854
:1021F0008587028470BD70B5002200230024058C01
:102200004EF6FF7635400584038C8488828B48F631
:10221000FF752A404FF6FF452A400D8820E0000058
:10222000002C01400004004000080040000C004069
:10223000001000400014004000340140004C0140F8
:10224000005001400054014000180040001C0040B4
:10225000002000400040014000440140004801408F
:102260004FF6FF7606EA05252A434DF6FF752B400B
:102270000D8906EA05352B434D8806EA05352B43C3
:10228000FA4DA84202D0FA4DA84208D14BF6FF758C
:102290002C408D894FF6FF7606EA85152C43848005
:1022A0008283CD88A0F84050038470BD828B4FF2AA
:1022B000FF331A408283828B4FF6FF7303EA0123B8
:1022C0001A4382837047F0B50C4615460022002160
:1022D0000026078C4EF6FF7C07EA0C070784828BEA
:1022E000018C4FF6FF7707EA043640F6FF473A4085
:1022F0004FF6FF7707EA05273A434FF6FF7707EADD
:1023000003373A43D94FB8420ED0D94FB8420BD019
:10231000B0F1804F08D0D74FB84205D0D64FB84261
:1023200002D0D64FB84206D14DF6FF77394046F479
:102330008057394305E047F6FF57394044F480574A
:10234000394382830184F0BD828B4FF6F3731A40C8
:102350008283828B0A4382837047F0B50C46154610
:10236000002200210026078C4FF6FF6C07EA0C07BD
:102370000784828B018C4FF6FF7707EA04264FF61D
:102380000C773A404FF6FF7707EA03172F433A439B
:10239000B64FB8420ED0B64FB8420BD0B0F1804F16
:1023A00008D0B44FB84205D0B34FB84202D0B34FB3
:1023B000B84206D14FF6FF57394046F4807739438B
:1023C00005E04FF2FF57394044F480773943828368
:1023D0000184F0BD028B4FF2FF331A400283028B5F
:1023E0004FF6FF7303EA01231A4302837047F0B5E7
:1023F0000C461546002200210026078C4FF6EF7C84
:1024000007EA0C070784028B018C4FF6FF7707EA77
:10241000041640F6FF473A404FF6FF7707EA0337C6
:102420003A434FF6FF7707EA05273A438F4FB84202
:102430000ED08F4FB8420BD0B0F1804F08D08D4FE7
:10244000B84205D08C4FB84202D08C4FB84206D16A
:102450004FF6DF77394046F01007394305E04FF675
:102460005F77394044F01007394302830184F0BD9F
:10247000028B4FF6F3731A400283028B0A430283E6
:102480007047F0B50C46154600220021068C4FF629
:10249000FE773E400684028B018C4FF60C7632406C
:1024A0007E1C06EA03162E433243704EB0420ED015
:1024B0006F4EB0420BD0B0F1804F08D06D4EB0429D
:1024C00005D06D4EB04202D06C4EB04206D14FF6F0
:1024D000FD76314044F00106314305E04FF6F576D4
:1024E000314044F00106314302830184F0BD70B5F0
:1024F00005460C465D4885420ED05D4885420BD0AE
:10250000B5F1804F08D05B48854205D05A488542D6
:1025100002D05A48854200D100E000BF208850B95F
:102520002389A28861882846FFF7ABFFE188284607
:10253000FFF79EFF25E0208804280AD12389A2887E
:1025400061882846FFF753FFE1882846FFF742FFDE
:1025500017E0208808280AD12389A28861882846A4
:10256000FFF7FBFEE1882846FFF7EEFE09E023892E
:10257000A28861882846FFF7A6FEE1882846FFF773
:1025800095FE70BD2DE9F04105460C460026012759
:10259000608808B9022600E00026A088012801D141
:1025A000022700E001272088A0B92389A28861883A
:1025B0002846FFF766FFE1882846FFF759FF238981
:1025C0003A4631462846FFF712FFE1882846FFF7D2
:1025D00001FF13E02389A28861882846FFF707FFDF
:1025E000E1882846FFF7F6FE23893A463146284619
:1025F000FFF747FFE1882846FFF73AFFBDE8F08183
:102600000A884B881A438B881A43CB881A430B8954
:102610001A434B891A438B891A43A0F84420704708
:102620004FF6FF71818000210180C18041800172DD
:1026300070470021018041808180C18001814181FA
:102640008181C18170470021018041800121818009
:102650000021C1800181704700210180418081807B
:10266000C18001814181818170470000002C0140BF
:10267000003401400004004000080040000C00400D
:1026800021B1028842F00102028004E002884FF684
:10269000FE731A400280704731B1B0F8442042F412
:1026A0000042A0F8442005E0B0F84420C2F30E0236
:1026B000A0F8442070471AB183890B43838102E05C
:1026C00083898B43838170478182704741EA02038B
:1026D000A0F8483070471AB183890B43838102E028
:1026E00083898B438381704701894FF6F8721140CB
:1026F000018170470A46002101894FF68F73194006
:1027000011430181704730B504460D4629462046E5
:10271000FFF7F0FF208940F00700208130BD2DE950
:10272000F04104460D4616461F46602D06D13B4635
:10273000012231462046FFF75AFE05E03B460122C2
:1027400031462046FFF79DFE29462046FFF7D2FF7F
:10275000208940F007002081BDE8F08130B50C46AB
:1027600000210189C9B24FF6FF7505EA032515431B
:1027700025432943018130BD2DE9F04105460E4630
:1027800017469846002443463A4631462846FFF706
:10279000E5FF2C894FF6F870044044F007044FF62B
:1027A0008F70044044F070042C81BDE8F081F0B5D6
:1027B00004460D4616461F463B46324629462046ED
:1027C000FFF7CCFF208940F480402081F0BD0185D7
:1027D000828270470A46002101884FF68F731940A4
:1027E000114301807047F0B50C4615461E46002186
:1027F000002200230189028B038C4FF6F8773940C1
:1028000021434FF6FC473A4040F201173A434FF656
:10281000DD773B404FF6FF7707EA06172F433B4330
:10282000018102830384F0BD0A460021018B4FF62B
:102830008F7319401143018370470A460021018BB1
:1028400048F6FF7319404FF6FF7303EA022319435A
:10285000018370470A460021818B4FF68F73194020
:102860001143818370470A460021818B48F6FF732C
:1028700019404FF6FF7303EA02231943818370471F
:1028800021B1028842F08002028004E002884FF603
:102890007F731A400280704721B1828842F004029F
:1028A000828004E082884FF6FB731A408280704772
:1028B00021B1828842F00802828004E082884FF6CB
:1028C000F7731A408280704721B1828842F001027A
:1028D000828004E082884FF6FE731A40828070473F
:1028E0000A460021018B4FF6F7731940114301830B
:1028F00070470A460021018B4FF2FF7319404FF6D3
:10290000FF7303EA02231943018370470A4600213B
:10291000818B4FF6F77319401143818370470A4644
:102920000021818B4FF2FF7319404FF6FF7303EACA
:1029300002231943818370470A460021018B4FF619
:10294000FB7319401143018370470A460021018B34
:102950004FF6FF3319404FF6FF7303EA0223194382
:10296000018370470A460021818B4FF6FB731940A3
:102970001143818370470A460021818B4FF6FF3354
:1029800019404FF6FF7303EA02231943818370470E
:102990000A460021018B4FF67F73194011430183D2
:1029A00070470A460021018BC1F30E014FF6FF73F9
:1029B00003EA02231943018370470A460021818BF1
:1029C0004FF67F7319401143818370470A460021F7
:1029D000818BC1F30E014FF6FF7303EA0223194303
:1029E000818370470A460021018C4FF6FD73194020
:1029F0001143018470470A460021018C4FF6F7739A
:102A000019401143018470470A460021018C4FF69A
:102A1000DF7319404FF6FF7303EA02131943018471
:102A200070470A460021018C4FF67F7319404FF61C
:102A3000FF7303EA02131943018470470A46002119
:102A4000018C4FF6FF5319404FF6FF7303EA022340
:102A50001943018470470A460021018C4FF2FF732D
:102A600019404FF6FF7303EA0223194301847047AC
:102A70000A460021018C4DF6FF7319404FF6FF7393
:102A800003EA023319430184704730B5002301245F
:102A90008C40A3B2048C9C430484048C02FA01F59C
:102AA000ADB22C43048430BD30B5002304248C40E7
:102AB000A3B2048C9C430484048C02FA01F5ADB2E9
:102AC0002C43048430BD70B5034600200024184612
:102AD000183001258D40ACB21D8CA5431D8409B171
:102AE000082909D100EB6100056825F07005056033
:102AF0000568154305600EE00D1FC5F34E0528441B
:102B0000056825F4E045056005684FF6FF7606EA9E
:102B100002263543056070BD21B1028842F00202F1
:102B2000028004E002884FF6FD731A40028070476D
:102B300021B1028842F00402028004E002884FF6CC
:102B4000FB731A400280704721B1828842F08002F4
:102B5000828004E082884FF67F731A40828070473B
:102B600002884FF6F7731A40028002880A430280F7
:102B7000704782884FF68F731A40828082880A439A
:102B80008280704702894FF6F8731A4002810289E9
:102B90000A430281704702894FF67F731A4002810F
:102BA00002890A430281704781847047818570479A
:102BB000818670470187704781877047A0F8401071
:102BC000704702884FF6FF431A40028002880A438A
:102BD000028070470146888E70470146088F704713
:102BE0000146888F70470146B1F8400070470146A2
:102BF000888C70470146088D704702460020138A72
:102C00000B400BB1012000E000207047CA43028254
:102C1000704730B50246002000230024158A05EADB
:102C20000103958905EA010413B10CB1012000E00C
:102C3000002030BDCA4302827047000010B5044630
:102C4000FB48844209D101218803FFF79FF8002146
:102C50004FF48040FFF79AF832E0F648844209D1F9
:102C600001214804FFF79FF800214FF40030FFF7DF
:102C70009AF825E0F048844209D101218804FFF741
:102C800092F800214FF48020FFF78DF818E0EB4810
:102C9000844209D10121C804FFF785F800214FF4CF
:102CA0000020FFF780F80BE0E548844208D10121BD
:102CB0000805FFF778F800214FF48010FFF773F84C
:102CC00010BD2DE9F04786B005460E460024A24609
:102CD00000BFA1460027B08900B100BF2F462C8A53
:102CE0004CF6FF700440F08804432C82AC894EF609
:102CF000F3100440B08831890843718908430443C4
:102D0000AC81AC8A4FF6FF400440B0890443AC82EA
:102D100001A8FEF7B4FFC648874202D1DDF810A033
:102D200001E0DDF80CA0A88900F4004040B10AEBF6
:102D3000CA0000EB0A1031684900B0FBF1F807E067
:102D40000AEBCA0000EB0A1031688900B0FBF1F809
:102D50006420B8FBF0F004012009642101FB108914
:102D6000A88900F4004040B1322000EBC900B0FB5C
:102D7000F1F000F00700044308E0322000EB0910F6
:102D80006421B0FBF1F000F00F0004432C8106B089
:102D9000BDE8F0874FF41651016000218180C180A9
:102DA00001810C21418100218181704710B50246CB
:102DB0000020108A4FF2FF0318400B884C882343F1
:102DC0008C882343CC8823431843108210BD0021F4
:102DD000018041808180C180704721B1828942F4A5
:102DE0000052828104E082894DF6FF731A4082818D
:102DF0007047F0B50346002400260025002040F669
:102E00006A17B94200D100BF1846C1F3421401F05D
:102E10001F06012707FA06F5012C01D10C3004E04A
:102E2000022C01D1103000E014301AB107682F4392
:102E3000076002E00768AF430760F0BD1AB1838AFC
:102E40000B43838202E0838A8B4383827047028A2A
:102E50004FF6F0731A400282028A0A4302827047D8
:102E600082894FF2FF731A40828182890A438281EC
:102E7000704721B1828942F00202828104E0828996
:102E80004FF6FD731A4082817047028A4FF6DF7356
:102E90001A400282028A0A430282704721B1028AE2
:102EA00042F48042028204E0028A4BF6FF731A4029
:102EB00002827047C1F30802828070470146888809
:102EC000C0F308007047818941F00101818170479A
:102ED000028BD2B20283028B42EA01220283704744
:102EE000028B02F47F420283028B0A430283704703
:102EF00021B1828A42F02002828204E0828A4FF667
:102F0000DF731A408282704721B1828A42F0100238
:102F1000828204E0828A4FF6EF731A408282704701
:102F200021B1828A42F00802828204E0828A4FF64E
:102F3000F7731A408282704721B1828942F40042BD
:102F4000828103E08289C2F30E028281704721B13F
:102F5000828A42F40062828204E0828A4FF2FF7326
:102F60001A4082827047828A4FF6FB731A4082822F
:102F7000828A0A438282704721B1828A42F0020229
:102F8000828204E0828A4FF6FD731A408282704783
:102F900002460020B1F5007F00D100BF13880B402E
:102FA0000BB1012000E00020704701F40072B2F57F
:102FB000007F00D100BFCA430280704770B502464F
:102FC000002400230025002040F66A16B14200D1FB
:102FD00000BFC1F3421501F01F03012606FA03F3F7
:102FE000012D02D19689334006E0022D02D1168AC6
:102FF000334001E0968A33400C12012606FA04F4AD
:103000001688344013B10CB1012000E0002070BDDF
:1030100010B50022002340F66A14A14200D100BF7F
:103020000A1201249440A3B2DC43048010BD0000C6
:10303000003801400044004000480040004C00407F
:10304000005000400CB50020019000906C480068D2
:1030500040F480306A49086000BF6948006800F4A5
:10306000003000900198401C0190009818B9019818
:10307000B0F5A06FF1D16248006800F4003010B1E3
:103080000120009001E0002000900098012843D129
:103090005C48006840F010005A4908600846006823
:1030A00020F0030008600846006840F00200086055
:1030B000534840685249486008464068486008469E
:1030C000406840F4806048600846406820F47C1006
:1030D00048600846406840F4E810486008460068C8
:1030E00040F08070086000BF4548006800F0007044
:1030F0000028F9D04248406820F003004049486069
:103100000846406840F00200486000BF3C48406804
:1031100000F00C000828F9D10CBD10B5FFF792FFA4
:1031200010BD10B53648006840F001003449086011
:1031300008464068344908403149486008460068FC
:10314000324908402E4908600846006820F4802073
:1031500008600846406820F4FE0048604FF41F00F5
:103160008860FFF7DAFF4FF000602949086010BD62
:1031700010B5002100200022214B5B6803F00C01F8
:1031800021B1042906D0082928D107E0214B224C7F
:10319000236027E01F4B204C236023E0184B5B6823
:1031A00003F47010164B5B6803F48032022303EBC8
:1031B000904022B9194B4343174C23600DE0104B4C
:1031C0005B6803F4003323B1144B4343124C236078
:1031D00003E0104B4343104C236003E00D4B0E4CB7
:1031E000236000BF00BF064B5B68C3F303130C4CA6
:1031F000E15C094B1B68CB40074C236010BD00000D
:1032000000100240002002400000FFF8FFFFF6FE21
:1032100008ED00E000127A003000002000093D00B7
:10322000340000200648804706480047FEE7FEE7D6
:10323000FEE7FEE7FEE7FEE7FEE7FEE7FEE7FEE766
:1032400023310008ED000008D2B201E000F8012BA4
:10325000491EFBD270470022F6E710B513460A4616
:1032600004461946FFF7F0FF204610BD421E12F833
:10327000013F002BFBD111F8013B02F8013B002B71
:10328000F9D1704730B505462A460B4612F8010BB6
:1032900013F8014B08B1A042F8D01CB1002802D0AD
:1032A0006D1CF1E7284630BD10B5044604E00B78EC
:1032B00000F8013B03B1491C521EF8D2204610BD54
:1032C000CAB2401E10F8011F8A4202D00029F9D16B
:1032D00000207047421C10F8011B0029FBD1801A06
:1032E000704710B5002200E0521C835C8C5CA34246
:1032F00001D1002BF8D1D8B2E1B2401A10BD03467B
:1033000011F8012B00F8012B002AF9D1184670475B
:1033100010B54843044601F08DF8002805D000217F
:10332000002C02D0641E0155FAE710BDF0B480EA0B
:103330000102D40F4200B2EB410F02D2024608460E
:1033400011464A0042D0C30DDDB2C1F3C752AD1AD7
:10335000202D35DAC1F3160141F4000204B15242C6
:10336000C5F1200602FA06F12A411044B3EBD05F02
:1033700023D0C4B1012DA0EBC35009DCF0BC4FF049
:10338000004202EAC352DBB200F5000000F0EBBAE3
:10339000400000F1807000EBC350A0F1807040EA63
:1033A000D170490009E0490841EAC071A0EBC3505F
:1033B00000F50000400800EBC350F0BC00F0CABAB2
:1033C0006142012202EB4101001BF6E7F0BC7047AD
:1033D00081F00041AAE780F00040A7E780EA0102FF
:1033E00010B502F00043400022D04A001FD0010E69
:1033F00001EB1261C0F35600C2F3560240F4000024
:1034000042F40002A0FB022000047F39140400D023
:10341000401C50EA124001D44000491EC2B20C06C2
:1034200004EBD010401C4008802A02D003E00020AA
:1034300010BD20F00100002900DA0020184310BD63
:103440002DE9FE4F804681EA0300C00F0C46009034
:1034500021F0004123F00045B8EB0200A94105D25C
:103460004046214690461C460B46024623F000404B
:10347000104347D0270DC7F30A00C3F30A51029047
:10348000401A019040286BDAC3F3130040F4801B0C
:103490000098924620B10023D2EB030A63EB0B0B9A
:1034A00001985946C0F14002504600F022FA064603
:1034B0000D4650465946019A00F03AFA10EB0800C2
:1034C0006141002487EA115284EAE7731A4340D02D
:1034D000009A62B3019A012A4FEA075215DC001BD9
:1034E00061EB02014FF0004202EA0752CDE90042CF
:1034F000001C41F5801132462B4600F071FA03B0F2
:10350000BDE8F08F40462146F9E7001B61EB020160
:10351000001C41F5801300185B412018A2F500172C
:1035200047EB030140EAD570B6196D4111E06D0813
:103530004FEA360645EAC0754FEA0752001B61EBB9
:103540000201001C41F5801149084FEA30000019C2
:10355000514132462B4603B0BDE8F04F00F031BA7E
:103560000098012240000023D0EB020263EBE073DD
:10357000009821464FEAE074B8EB000061EB0401CB
:10358000E9E783F000435BE781F0004158E72DE96C
:10359000FE4F81EA030404F0004421F0004100944E
:1035A0004FF0000B23F0004350EA01045ED052EAD2
:1035B00003045BD0C3F30A54C1F30A552C44A4F2AC
:1035C000F3340194A0FB0254C1F3130141F48011C0
:1035D000C3F3130343F4801301FB024400FB034EC7
:1035E000840A970A44EA815447EA8357A4FB076890
:1035F00002958D0A05FB07854FEA932C04FB0C54BA
:103600002705029D4FEA065847EA1637B5EB08052D
:103610006EEB070C870E920E47EA811742EA83127F
:10362000A7FB0201B6EB0B0164EB00042B0D43EA90
:103630000C335E1844EB1C50DA465146E7FB02019E
:10364000C5F313044FEA0B3343EA14534FEA043231
:10365000019C43EA0603A4F10C040294009CCDE90A
:1036600000B400F0BDF903B0BDE8F08F00200146C2
:10367000F9E72DE9F04D81EA030404F0004B21F055
:10368000004514464FF0000A23F0004150EA0502BD
:1036900020D054EA01021DD0C5F30A570246C5F3F3
:1036A0001303C1F31300C1F30A5640F4801543F429
:1036B0008013A7EB0608101BD64608F2FD3873EB03
:1036C000050002D308F1010801E092185B41B8F14E
:1036D000000F03DA00200146BDE8F08D00204FF412
:1036E0008011064684460EE0171B73EB050705D3D1
:1036F000121B63EB050306434CEA010C49084FEA31
:10370000300092185B4150EA0107EDD152EA030004
:1037100012D082EA040083EA0501084305D0101B99
:10372000AB4106D20122002306E000224FF0004305
:1037300002E06FF0010253101AEB06004CEB085147
:1037400010EB0A0041EB0B01BDE8F04D00F039B978
:1037500096230022114600F006B90EB5C10F80EA8B
:10376000E0700844CA07002140F233438DE80E00A0
:103770000A460B4600F034F903B000BD20F00040CB
:10378000C10DC0F3160040F400007F2901DA0020CB
:103790007047962903DCC1F19601C84070479639FD
:1037A00088407047C1F30A5210B5C1F3130140F2CB
:1037B000FF3341F480119A4201DA002010BD40F23B
:1037C00033439A42A2F2334203DC524200F0A0F8A3
:1037D00010BD904010BD00F0004230F000400AD013
:1037E000C10D01F56071C0F3160042EA0151C20833
:1037F00040071143704700200146704730B5041E52
:1038000071F1000404DB4FF00044404264EB01011D
:10381000141E73F1000405DB1C464FF000435242B6
:1038200063EB04038B4208BF824230BD01F00043CA
:1038300030B421F0004150EA010206D00A0DA2F591
:103840006072C1F31301002A02DC30BC0020704713
:10385000440F44EAC104C100E01830BC00EBC25080
:1038600000F078B830B50B46014600202022012434
:1038700009E021FA02F59D4205D303FA02F5491B3E
:1038800004FA02F52844151EA2F10102F1DC30BD54
:103890002DE9F05F0546002092469B468846064685
:1038A000814640241BE0284641464746224600F018
:1038B0002FF853465A46C01A914110D31146184664
:1038C000224600F016F82D1A67EB01084F462246F3
:1038D0000120002100F00DF817EB00094E41201ED9
:1038E000A4F10104DFDC484631462A464346BDE8E0
:1038F000F09F202A04DB203A00FA02F100207047F2
:103900009140C2F1200320FA03F31943904070471D
:10391000202A04DB203A21FA02F00021704721FA24
:1039200002F3D040C2F1200291400843194670478B
:10393000202A06DBCB17203A41FA02F043EAE07373
:1039400006E041FA02F3D040C2F120029140084360
:10395000194670470029A8BF7047401C490008BF9E
:1039600020F00100704710B4B0FA80FC00FA0CF0AF
:1039700050EA010404BF10BC704749B1CCF12004E7
:1039800021FA04F411FA0CF118BF01212143084374
:10399000A3EB0C01CB1D4FEA00614FEA102042BFA0
:1039A000002010BC704700EBC35010440029A4BF96
:1039B00010BC7047401C490008BF20F0010010BC3B
:1039C000704710B5141E73F1000408DA401C41F171
:1039D000000192185B411A4301D120F0010010BD93
:1039E0002DE9F04D92469B4611B1B1FA81F202E009
:1039F000B0FA80F220329046FFF77BFF04460F4674
:103A000040EA0A0041EA0B0153465A46084313D0E4
:103A1000114653EA010019D0C8F140025046FFF7A1
:103A200077FF05460E46504659464246FFF761FF6E
:103A3000084305D0012004E020463946BDE8F08D5A
:103A40000020054346EAE0762C4337430A98630595
:103A5000E40AA0EB08000022FD0A44EA47540A30B9
:103A600002D500200146E9E7010510196941DDE9A9
:103A7000084500196941BDE8F04DA2E7C1F30A52BB
:103A8000C1F3130140F2FF3341F480119A4202DA8C
:103A900000200146704740F233439A42A2F233427B
:103AA00002DC5242FFF734BFFFF723BF30B5041EDC
:103AB00071F1000404DB4FF00044404264EB01016B
:103AC000141E73F1000405DB1C464FF00043524204
:103AD00063EB0403994208BF904230BD064C074D8A
:103AE00006E0E06840F0010394E8070098471034CE
:103AF000AC42F6D3FCF7FEFAC0440008E0440008EC
:103B00000FB4084B10B504A902AA039800F0CEF830
:103B1000044602A9002000F060FC204610BC5DF8BD
:103B200014FB0000DB43000802E008C8121F08C1B4
:103B3000002AFAD170477047002001E001C1121F2E
:103B4000002AFBD1704700002DE9FF5FDDE902206C
:103B5000010DDDF838B0024318D044F61050A1F240
:103B6000FF3141430D140F98012820D0A5EB0B0025
:103B7000401C5FEA000A4FF00004474EDFF81C913A
:103B8000A046504616D5CAF1000728E00F98012438
:103B900043A2012808D0002100980F9BC0E9002112
:103BA000C0E90243BDE8FF9F6FEA0B01F4E7CBF1E8
:103BB0000000DEE7074612E0F80707D0224633464A
:103BC00040464946FFF7E3FC804689462246334695
:103BD00010461946FFF7DBFC04460E467F10002F07
:103BE000EAD1DDE90201BAF1000F42464B4602DAA2
:103BF000FFF7CDFC01E0FFF73CFD04460E46002236
:103C0000284BFFF753FF03D84FF0FF30014607E082
:103C10000022254B20463146FFF712FCFFF72EFF0E
:103C2000102409E0002C0ADB0A220023FFF730FEF3
:103C3000019B30321A55641E50EA0102F2D1641C15
:103C4000019AC4F1110314440F9A012A03D00122EE
:103C500008430DD10AE0084304D000204FF0110BB7
:103C60000F9080E7A3EB0B056D1E0DE05B4504DDB7
:103C70004FF0000205F1010504E003DA4FF0000205
:103C8000A5F10105002AECD000980F99C0E9023196
:103C9000C0E9004586E70000000024400000F03F36
:103CA000300000000000F0430000E03F2DE9FF4F2E
:103CB00095B09B468946064600250FE2252877D118
:103CC00000242746F84A0121059400E0044316F831
:103CD000013F203B01FA03F01042F7D130782A2847
:103CE00011D06FF02F033078A0F13002092A16D8D6
:103CF000059A44F0020402EB820203EB42021044F4
:103D0000761C0590EFE759F8042B0592002A03DA98
:103D1000504244F40054059044F00204761C30787C
:103D20002E2816D116F8010F44F004042A280DD0CD
:103D30006FF02F023078A0F13003092B09D807EB80
:103D4000870302EB4303C718761CF3E759F8047B9B
:103D5000761C30786C280FD006DC4C2817D06828E9
:103D60000DD06A2814D104E0742810D07A280FD11D
:103D70000DE044F400140AE044F4801401E044F43B
:103D800040147278824202D104F58014761C761CAD
:103D9000307866280BD013DC582877D009DC00284F
:103DA00075D04528F6D04628F4D047281AD19DE191
:103DB00018E0632835D0642879D0652812D195E1C0
:103DC000702873D008DC6728F1D069286FD06E287E
:103DD0000DD06F2806D1B5E073282CD0752875D08A
:103DE000782874D05A46179990476D1C75E1C4F332
:103DF0000250022809D003280DD0D9F80010042859
:103E00000DD00D6009F1040967E1D9F80010EA1737
:103E1000C1E90052F6E7D9F800100D80F2E70D7005
:103E2000F0E719F8041B8DF8001000208DF8010050
:103E3000EA46012003E059F804AB4FF0FF30610778
:103E40004FF0000102D40DE008F101018846B942AB
:103E50000FDA8045F8DB1AF808100029F4D108E0E1
:103E600008F1010188468142FADB1AF8081000299E
:103E7000F6D105985B46A0EB080721463846179A0D
:103E800000F094FA284400EB080507E04DE029E132
:103E90000DE01AF8010B5A4617999047B8F101083E
:103EA000F7D25B4621463846179A13E142E00A22D0
:103EB0000092C4F302524FF0000A022A08D059F8C7
:103EC00004CB032A4FEAEC710AD00DE029E02AE086
:103ED00009F1070121F00702F2E802C1914609E069
:103EE0000FFA8CFC4FEAEC71042A03D14FFA8CFCD8
:103EF0004FEAEC71002907DA0A460021DCF1000CD8
:103F000061EB02012D2202E0220504D52B228DF85F
:103F10000420012203E0E20701D02022F7E79046C7
:103F200059E00A2102E010220DE010214FF0000AB2
:103F300000910BE010224FF0000A44F0040408271F
:103F4000009203E008224FF0000A0092C4F30252EC
:103F5000022A05D059F804CB0021032A08D009E031
:103F600009F1070121F00702F2E802C1914605E0DC
:103F70001FFA8CFC042A01D10CF0FF0C4FF0000852
:103F8000220728D5702806D0009B83F0100353EA3F
:103F90000A0305D00EE040228DF80420012208E03B
:103FA0005CEA010206D030228DF804208DF805006D
:103FB00002229046009B83F0080353EA0A030AD1C9
:103FC0005CEA010201D1620705D530228DF8042098
:103FD0004FF001087F1E582804D034A003900EA88B
:103FE00002900DE036A0F9E753466046009AFFF7CD
:103FF0004FFC84460398825C0298401E0290027037
:104000005CEA0100F0D1029806A9081A00F1200A22
:10401000600702D524F4803400E00127574502DD13
:10402000A7EB0A0000E0002000EB0A0100900598D1
:104030004144401A0590E00306D45B462146179A96
:10404000059800F0B3F90544002706E001A85A4698
:10405000C05D179990476D1C7F1C4745F6DBE00358
:104060000CD55B462146179A059800F09FF9054448
:1040700004E030205A46179990476D1C0099481E5D
:1040800000900029F5DC08E0029802995A46007871
:10409000491C0291179990476D1CBAF10001AAF1D1
:1040A000010AF1DC65E100000928010030313233FA
:1040B0003435363738396162636465660000000064
:1040C000303132333435363738394142434445464E
:1040D0000000000000F058F90544761C30780028F4
:1040E0007FF4ECAD19B02846BDE8F08F620700D42C
:1040F000062709F1070222F0070CFCE80223E1463B
:1041000003F000485FEA080C02D00FF2702C0DE0BB
:104110005FEA045C02D50FF2682C07E05FEAC47C1A
:1041200002D00FF2602C01E0AFF2700C4FF0FF38BC
:1041300023F00043CDF850C065280CD006DC45289C
:1041400009D046281DD047283DD13DE0662818D02B
:1041500067287ED138E00021112F01DB112000E01B
:10416000781CCDE9000106A90EA8FFF7EDFCDDE9FA
:104170000F010E9A03910021009207F1010A0491A8
:104180004DE04FF000400097CDE9011006A90EA8C0
:10419000FFF7DAFCDDE90F0203920E9B1199002272
:1041A000DDF80CA00093049211B9791C00EB010A10
:1041B000B7EB0A0004D4C0F1FF3007F1010A049004
:1041C000AAEB0700019044E0012F00DA012700214B
:1041D000112F01DD112000E03846CDE9000106A9CC
:1041E0000EA8FFF7B1FCDDE90F010E9A0391002143
:1041F00004910092BA4621070CD40399514500DA84
:104200008A46BAF1010F05DD009AAAF10101515C5D
:10421000302908D0B84202DA10F1040F06DA012181
:10422000CDE9011015E0AAF10101E9E7002805DC5C
:10423000049901440491AAEB000102E0411C51459C
:1042400000DD8A460499401A401C01904FF000405E
:104250000290200704D40198504501DBCDF804807A
:1042600000208DF84F0002980DF14F07B0F1004F7C
:1042700025D02B200E9002984FF0020800280CDA6F
:10428000404202902D200E9007E00A210298FFF78D
:10429000E9FA3031029007F8011DB8F10001A8F1E8
:1042A0000108F2DC02980028EFD1791E0E98087000
:1042B000307800F0200040F0450007F8020D12A809
:1042C000C01B00F107081498007800B1012000EB32
:1042D0000A01019801EBE07105984144401A401E23
:1042E0000590E00306D45B462146179A059800F036
:1042F0005DF805441498007818B15A46179990470C
:104300006D1CE00324D55B462146179A059800F002
:104310004DF805441CE00498002807DBDDE90301A3
:10432000884203DD0098405C179901E0179930201E
:104330005A469047049805F10105401C04900198E5
:10434000401E019004D12E205A46179990476D1CAB
:10435000BAF10001AAF1010ADDDC05E017F8010B52
:104360005A46179990476D1CB8F10001A8F1010851
:10437000F4DC5B462146179A0598ABE62D00000059
:104380002B000000200000002DE9F041044600252C
:104390001E461746880404D405E039462020B0475D
:1043A0006D1C641EF9D52846BDE8F0812DE9F04169
:1043B000044600251E469046C80301D5302700E07C
:1043C0002027880404D505E041463846B0476D1CD7
:1043D000641EF9D52846BDE8F0810A68531C0B60BD
:1043E0001070704710B5002821D0114B0022001F1B
:1043F000196803E0814203D80A4649680029F9D1C7
:1044000052B11368841A9C4204D1006818441060A9
:10441000104602E0506000E0186039B102680B1AE3
:10442000934203D10B681A4402604968416010BD91
:1044300044000020F0B50B30154D20F0070100249A
:10444000144A0FE003688B420BD38B4205D95E1AE6
:1044500043184768C3E9006700E04368136002C07F
:1044600004E0021D10680028ECD12046002802D18B
:10447000286808B10020F0BD064A07481060074AC6
:10448000121A22F00702C0E9002401202860D7E7B1
:104490004800002044000020540100205005002066
:1044A0004142434445464748494A4B4C4D4E4F5084
:1044B0005152535455565758595A33300D0A00002B
:1044C000E0440008000000204C000000283B0008E9
:1044D0002C4500084C000020040D0000383B00086B
:1044E00000000000000001000000000000000000CB
:1044F00000000000000000000000000000010203B6
:10450000040102030406070809020406080000006B
:1045100000A24A04000000000000000001020304A1
:0C45200006070809000000000000000071
:040000050800322598
:00000001FF
